:020000040800F2
:1000000070060020890100083D0300083503000840
:1000100039030008430200089505000800000000AD
:10002000000000000000000000000000490400087B
:1000300047020008000000003F030008A10100087B
:10004000A3010008A3010008A3010008A301000800
:10005000A3010008A3010008A3010008A3010008F0
:10006000A3010008A3010008A3010008A3010008E0
:10007000A3010008A3010008A3010008A3010008D0
:10008000A3010008A3010008A3010008A3010008C0
:10009000A3010008A3010008A3010008A3010008B0
:1000A000A3010008A3010008A3010008A3010008A0
:1000B000A3010008A3010008A3010008A301000890
:1000C000A3010008A3010008A3010008A301000880
:1000D000A3010008A3010008A3010008A301000870
:1000E000A3010008A3010008A301000800F002F822
:1000F00000F03AF80AA090E8000C82448344AAF188
:100100000107DA4501D100F02FF8AFF2090EBAE885
:100110000F0013F0010F18BFFB1A43F0010318473B
:10012000F00A0000100B0000103A24BF78C878C114
:10013000FAD8520724BF30C830C144BF04680C60ED
:10014000704700000023002400250026103A28BF35
:1001500078C1FBD8520728BF30C148BF0B60704739
:100160001FB51FBD10B510BD00F031F81146FFF7E7
:10017000F7FF00F051FB00F04FF803B4FFF7F2FF78
:1001800003BC00F057F800000948804709480047C1
:10019000FEE7FEE7FEE7FEE7FEE7FEE7FEE7FEE737
:1001A000FEE7FEE704480549054A064B7047000094
:1001B00035050008ED0000087000002070060020E2
:1001C000700200207002002070477047704775462B
:1001D00000F02CF8AE4605006946534620F00700B3
:1001E000854618B020B5FFF7DDFFBDE820404FF091
:1001F00000064FF000074FF000084FF0000B21F011
:100200000701AC46ACE8C009ACE8C009ACE8C009DD
:10021000ACE8C0098D46704710B50446AFF30080C6
:100220002046BDE81040FFF7A8BF00000048704717
:100230001000002001491820ABBEFEE72600020096
:10024000704700BFFEE770470021184A1180121D59
:1002500010800121154A143A11801449283909885F
:1002600041F00901114A283A118010491C390988C6
:1002700041F040010D4A1C3A118000BF0B4928395A
:10028000098801F001010029F8D100BF0749183998
:10029000098801F001010029F8D0044918390988BA
:1002A00021F00101014A183A11807047282C0140C1
:1002B0001D48806940F010001B4988611B48006997
:1002C00020F40050194908610846406820F44000B5
:1002D00048600846406840F4401048600846C068DE
:1002E00020F40050C8601048806940F004000E49B6
:1002F00088610846806920F00100886108468069AD
:1003000040F0010088610A48006840F00800084990
:1003100008600846006820F004000860084600688D
:1003200040F00300086070470010024000100140D8
:100330000408014000BFFEE700BFFEE770477047BA
:1003400010B500F0F7F83E48006820F080703C4996
:1003500008600846006840F48030086000BF3848F4
:10036000006800F400300028F9D0132035490860F7
:100370003348006820F080703149086005E030485B
:10038000406820F460102E4948602D48006840F015
:1003900080700028F3D02A48406840F44020284963
:1003A00048600846406848600846406840F48060FD
:1003B00048600846406848600846406840F0E06091
:1003C00048600846406820F470104860084640685D
:1003D00020F4803048600846406820F400304860CF
:1003E0000846406840F4803048600846406820F481
:1003F000003048600846006840F08070086000BF28
:100400000F48006800F000700028F9D00C484068E0
:1004100020F003000A4948600846406840F00200A6
:10042000486000BF0648406800F00C000828F9D179
:100430000348806940F400600149886110BD0000F4
:100440000010024000200240704710B500F002F892
:1004500010BD00000CB500200190009033480068EA
:1004600040F480303149086000BF3048006800F433
:10047000003000900198401C0190009818B9019834
:10048000B0F5A06FF1D12948006800F4003010B138
:100490000120009001E0002000900098012843D145
:1004A0002348006840F010002149086008460068B1
:1004B00020F0030008600846006840F00200086071
:1004C0001A4840681949486008464068486008462C
:1004D000406840F4806048600846406820F47C1022
:1004E00048600846406840F4E810486008460068E4
:1004F00040F08070086000BF0C48006800F0007099
:100500000028F9D00948406820F0030007494860F6
:100510000846406840F00200486000BF0348406859
:1005200000F00C000828F9D10CBD000000100240BA
:100530000020024010B51348006840F00100114946
:10054000086008464068104908400E49486008465F
:1005500000680E4908400B4908600846006820F40E
:10056000802008600846406820F4FE0048604FF490
:100570001F008860FFF769FF4FF0006004490860C2
:1005800010BD0000001002400000FFF8FFFFF6FE63
:1005900008ED00E000BFFEE70D48C06840F40050E1
:1005A0000B49C8600846C06840F48050C8600846DF
:1005B000C06840F48050C8600846C06820F400500D
:1005C000C8600846C06840F48050C86070470000AA
:1005D000001001402DE9F04104460D4616461F4625
:1005E00000208949086003E18848007800F0800015
:1005F000002802DD00F0E4FA01E000F0B9FA8348D7
:10060000007800F04000002802DD00F0D9FA01E097
:1006100000F0AEFA7D48007800F02000002802DDEE
:1006200000F0CEFA01E000F0A3FA7848007800F07C
:100630001000002802DD00F0C3FA01E000F098FA93
:100640007248007800F00800002802DD00F0B8FAD7
:1006500001E000F08DFA6D48007800F004000028F9
:1006600002DD00F0ADFA01E000F082FA67480078A0
:1006700000F00200002802DD00F0A2FA01E000F024
:1006800077FA6248007800F00100002802DD00F0EF
:1006900097FA01E000F06CFA5D48007800F0800005
:1006A000002802DD00F08CFA01E000F061FA584801
:1006B000007800F04000002802DD00F081FA01E03F
:1006C00000F056FA5248007800F02000002802DDC1
:1006D00000F076FA01E000F04BFA4D48007800F0A7
:1006E0001000002802DD00F06BFA01E000F040FA93
:1006F0004748007800F00800002802DD00F060FAAA
:1007000001E000F035FA4248007800F004000028CB
:1007100002DD00F055FA01E000F02AFA3C480078CA
:1007200000F00200002802DD00F04AFA01E000F0CB
:100730001FFA3748007800F00100002802DD00F0C1
:100740003FFA01E000F014FA3248007800F080002F
:10075000002802DD00F034FA01E000F009FA2D482B
:10076000007800F04000002802DD00F029FA01E0E6
:1007700000F0FEF92748007800F02000002802DD94
:1007800000F01EFA01E000F0F3F92248007800F0D2
:100790001000002802DD00F013FA01E000F0E8F993
:1007A0001C48007800F00800002802DD00F008FA7C
:1007B00001E000F0DDF91748007800F0040000289F
:1007C00002DD00F0FDF901E000F0D2F911480078F7
:1007D00000F00200002802DD00F0F2F901E000F074
:1007E000C7F9FFF7D9FE08480068401C06490860B1
:1007F000054800681528FFF6F7AE41F29410FFF7A0
:1008000023FDBDE8F0810000000000200C00002066
:100810000D0000200E000020FFF792FDFFF748FDBD
:1008200062B699E10020CD490870FF20CC490870DC
:100830000020CC490870CC4908707CE0CB4908788E
:10084000C8490B78C6490A78C4490978FFF7C2FE3F
:10085000C6490878C3490B78C1490A78BF49097865
:10086000FFF7B8FEC1490878BE490B78BC490A7841
:10087000BA490978FFF7AEFEBC490878B9490B7848
:10088000B7490A78B5490978FFF7A4FEB74908784F
:10089000B4490B78B2490A78B0490978FFF79AFE53
:1008A000B2490878AF490B78AD490A78AB49097865
:1008B000FFF790FEAD490878AA490B78A8490A7855
:1008C000A6490978FFF786FEA8490878A5490B785C
:1008D000A3490A78A1490978FFF77CFEA349087863
:1008E000A0490B789E490A789C490978FFF772FE67
:1008F0009E4908789B490B7899490A789749097865
:10090000FFF768FE9949087896490B7894490A7868
:1009100092490978FFF75EFE90480078401C8F49A5
:1009200008708F480078401E8D4908708E48007806
:10093000401C8D4908708C480078FF28FFF67EAF78
:100940000020894908707CE08849087885490B783F
:1009500083490A7881490978FFF73CFE8349087882
:1009600080490B787E490A787C490978FFF732FE86
:100970007E4908787B490B7879490A787749097864
:10098000FFF728FE7949087876490B7874490A7888
:1009900072490978FFF71EFE7449087871490B788F
:1009A0006F490A786D490978FFF714FE6F49087896
:1009B0006C490B786A490A7868490978FFF70AFE9A
:1009C0006A49087867490B7865490A786349097864
:1009D000FFF700FE6549087862490B7860490A789C
:1009E0005E490978FFF7F6FD604908785D490B78A4
:1009F0005B490A7859490978FFF7ECFD5B490878AB
:100A000058490B7856490A7854490978FFF7E2FDAE
:100A10005649087853490B7851490A784F49097863
:100A2000FFF7D8FD4F480078401C4E4908704B48EE
:100A30000078401E494908704B480078401C4A49DC
:100A4000087049480078FF28FFF67EAF002046492D
:100A500008707CE04549087842490B7840490A789B
:100A60003E490978FFF7B6FD404908783D490B78C3
:100A70003B490A7839490978FFF7ACFD3B490878CA
:100A800038490B7836490A7834490978FFF7A2FDCE
:100A90003649087833490B7831490A782F49097863
:100AA000FFF798FD314908782E490B782C490A78D0
:100AB0002A490978FFF78EFD2C49087829490B78D7
:100AC00027490A7825490978FFF784FD27490878DE
:100AD00024490B7822490A7820490978FFF77AFDE2
:100AE000224908781F490B781D490A781B49097863
:100AF000FFF770FD1D4908781A490B7818490A78E4
:100B000016490978FFF766FD1849087815490B78EA
:100B100013490A7811490978FFF75CFD13490878F1
:100B200010490B780E490A780C490978FFF752FDF5
:100B30000B480078401C0A4908700A480078401E9B
:100B40000849087008480078401C074908700648A2
:100B50000078FE28FFF67EAF64E600000C0000205F
:100B60000D0000200E0000200400002008000020DE
:100B70001248C06840F400501049C8600846C06878
:100B800040F48050C8600846C06840F48050C86097
:100B90000846C06820F40050C8600846C06840F4A9
:100BA0008050C8600846C06840F48050C86008465D
:100BB000C06840F48050C8607047000000100140D9
:100BC0001248C06840F400501049C8600846C06828
:100BD00040F48050C8600846C06840F48050C86047
:100BE0000846C06840F48050C8600846C06840F4B9
:100BF0008050C8600846C06840F48050C86008460D
:100C0000C06820F40050C860704700000010014028
:100C1000300C00080000002010000000280100082F
:100C2000400C00081000002060060000440100088D
:100C30000000000000000000150000000000FF00A0
:040000050800018965
:00000001FF
